8=FIX.4.2|9=72|35=A|34=1|49=SEB91|52=20170530-04:34:47.147|56=KYZHOU|98=0|108=30|141=Y|10=092|