8=FIX.4.2|9=72|35=A|34=1|49=KYZHOU|52=20170609-02:33:48.646|56=SEB91|98=0|108=30|141=Y|10=101|8=FIX.4.2|9=188|35=V|34=2|49=KYZHOU|52=20170609-02:33:50.602|56=SEB91|146=12|55=AAL|55=CEA|55=DAL|55=ALK|55=AVH|55=ZNH|55=VLRS|55=CPA|55=GOL|55=LFL|55=LUV|55=UAL|262=1|263=1|264=5|265=1|267=2|269=0|269=1|10=153|8=FIX.4.2|9=125|35=D|34=3|49=KYZHOU|52=20170609-02:33:50.606|56=SEB91|1=123|11=1|21=1|38=1000|40=2|44=33.72|54=Y|55=AAL|60=20170609-02:33:50|10=082|8=FIX.4.2|9=124|35=D|34=4|49=KYZHOU|52=20170609-02:33:51.081|56=SEB91|1=123|11=2|21=1|38=501|40=2|44=26.96|54=2|55=CEA|60=20170609-02:33:51|10=003|8=FIX.4.2|9=124|35=D|34=5|49=KYZHOU|52=20170609-02:33:51.133|56=SEB91|1=123|11=3|21=1|38=501|40=2|44=36.52|54=2|55=DAL|60=20170609-02:33:51|10=004|8=FIX.4.2|9=125|35=D|34=6|49=KYZHOU|52=20170609-02:33:51.146|56=SEB91|1=123|11=4|21=1|38=1998|40=2|44=26.99|54=1|55=CEA|60=20170609-02:33:51|10=081|8=FIX.4.2|9=125|35=D|34=7|49=KYZHOU|52=20170609-02:33:51.148|56=SEB91|1=123|11=5|21=1|38=3002|40=2|44=27.08|54=1|55=CEA|60=20170609-02:33:51|10=054|8=FIX.4.2|9=125|35=D|34=8|49=KYZHOU|52=20170609-02:33:51.151|56=SEB91|1=123|11=6|21=1|38=3002|40=2|44=36.59|54=1|55=DAL|60=20170609-02:33:51|10=064|8=FIX.4.2|9=124|35=D|34=9|49=KYZHOU|52=20170609-02:33:51.169|56=SEB91|1=123|11=7|21=1|38=997|40=2|44=36.55|54=2|55=DAL|60=20170609-02:33:51|10=043|8=FIX.4.2|9=125|35=D|34=10|49=KYZHOU|52=20170609-02:33:51.172|56=SEB91|1=123|11=8|21=1|38=2001|40=2|44=36.6|54=1|55=DAL|60=20170609-02:33:51|10=052|8=FIX.4.2|9=126|35=D|34=11|49=KYZHOU|52=20170609-02:33:51.217|56=SEB91|1=123|11=9|21=1|38=3001|40=2|44=36.59|54=1|55=DAL|60=20170609-02:33:51|10=112|8=FIX.4.2|9=127|35=D|34=12|49=KYZHOU|52=20170609-02:33:51.217|56=SEB91|1=123|11=10|21=1|38=1998|40=2|44=36.55|54=2|55=DAL|60=20170609-02:33:51|10=174|8=FIX.4.2|9=126|35=D|34=13|49=KYZHOU|52=20170609-02:33:51.218|56=SEB91|1=123|11=11|21=1|38=502|40=2|44=36.52|54=2|55=DAL|60=20170609-02:33:51|10=105|8=FIX.4.2|9=127|35=D|34=14|49=KYZHOU|52=20170609-02:33:51.219|56=SEB91|1=123|11=12|21=1|38=1003|40=2|44=26.91|54=2|55=CEA|60=20170609-02:33:51|10=148|8=FIX.4.2|9=127|35=D|34=15|49=KYZHOU|52=20170609-02:33:51.221|56=SEB91|1=123|11=13|21=1|38=1997|40=2|44=36.56|54=1|55=DAL|60=20170609-02:33:51|10=174|8=FIX.4.2|9=127|35=D|34=16|49=KYZHOU|52=20170609-02:33:51.224|56=SEB91|1=123|11=14|21=1|38=4996|40=2|44=33.71|54=1|55=AAL|60=20170609-02:33:51|10=172|8=FIX.4.2|9=126|35=D|34=17|49=KYZHOU|52=20170609-02:33:51.225|56=SEB91|1=123|11=15|21=1|38=504|40=2|44=26.92|54=2|55=CEA|60=20170609-02:33:51|10=108|8=FIX.4.2|9=126|35=D|34=18|49=KYZHOU|52=20170609-02:33:51.225|56=SEB91|1=123|11=16|21=1|38=2003|40=2|44=36.6|54=1|55=DAL|60=20170609-02:33:51|10=109|8=FIX.4.2|9=127|35=D|34=19|49=KYZHOU|52=20170609-02:33:51.533|56=SEB91|1=123|11=17|21=1|38=2000|40=2|44=26.99|54=1|55=CEA|60=20170609-02:33:51|10=162|8=FIX.4.2|9=127|35=D|34=20|49=KYZHOU|52=20170609-02:33:51.535|56=SEB91|1=123|11=18|21=1|38=5000|40=2|44=27.01|54=1|55=CEA|60=20170609-02:33:51|10=144|8=FIX.4.2|9=126|35=D|34=21|49=KYZHOU|52=20170609-02:33:51.540|56=SEB91|1=123|11=19|21=1|38=999|40=2|44=33.72|54=2|55=AAL|60=20170609-02:33:51|10=126|8=FIX.4.2|9=127|35=D|34=22|49=KYZHOU|52=20170609-02:33:51.541|56=SEB91|1=123|11=20|21=1|38=1001|40=2|44=26.96|54=2|55=CEA|60=20170609-02:33:51|10=147|8=FIX.4.2|9=124|35=D|34=23|49=KYZHOU|52=20170609-02:33:51.555|56=SEB91|1=123|11=21|21=1|38=2998|40=2|44=27|54=1|55=CEA|60=20170609-02:33:51|10=020|8=FIX.4.2|9=126|35=D|34=24|49=KYZHOU|52=20170609-02:33:51.558|56=SEB91|1=123|11=22|21=1|38=502|40=2|44=26.97|54=2|55=CEA|60=20170609-02:33:51|10=116|8=FIX.4.2|9=126|35=D|34=25|49=KYZHOU|52=20170609-02:33:51.561|56=SEB91|1=123|11=23|21=1|38=997|40=2|44=27.01|54=1|55=CEA|60=20170609-02:33:51|10=115|8=FIX.4.2|9=127|35=D|34=26|49=KYZHOU|52=20170609-02:33:51.588|56=SEB91|1=123|11=24|21=1|38=3003|40=2|44=27.11|54=1|55=CEA|60=20170609-02:33:51|10=157|8=FIX.4.2|9=127|35=D|34=27|49=KYZHOU|52=20170609-02:33:51.589|56=SEB91|1=123|11=25|21=1|38=2003|40=2|44=33.81|54=1|55=AAL|60=20170609-02:33:51|10=168|8=FIX.4.2|9=126|35=D|34=28|49=KYZHOU|52=20170609-02:33:51.589|56=SEB91|1=123|11=26|21=1|38=996|40=2|44=26.99|54=2|55=CEA|60=20170609-02:33:51|10=147|8=FIX.4.2|9=127|35=D|34=29|49=KYZHOU|52=20170609-02:33:51.590|56=SEB91|1=123|11=27|21=1|38=3004|40=2|44=27.06|54=1|55=CEA|60=20170609-02:33:51|10=161|8=FIX.4.2|9=127|35=D|34=30|49=KYZHOU|52=20170609-02:33:51.591|56=SEB91|1=123|11=28|21=1|38=1004|40=2|44=33.69|54=2|55=AAL|60=20170609-02:33:51|10=165|8=FIX.4.2|9=127|35=D|34=31|49=KYZHOU|52=20170609-02:33:51.591|56=SEB91|1=123|11=29|21=1|38=3000|40=2|44=27.01|54=2|55=CEA|60=20170609-02:33:51|10=149|8=FIX.4.2|9=126|35=D|34=32|49=KYZHOU|52=20170609-02:33:51.592|56=SEB91|1=123|11=30|21=1|38=5001|40=2|44=33.8|54=1|55=AAL|60=20170609-02:33:51|10=105|8=FIX.4.2|9=126|35=D|34=33|49=KYZHOU|52=20170609-02:33:51.593|56=SEB91|1=123|11=31|21=1|38=998|40=2|44=33.73|54=2|55=AAL|60=20170609-02:33:51|10=131|8=FIX.4.2|9=126|35=D|34=34|49=KYZHOU|52=20170609-02:33:51.595|56=SEB91|1=123|11=32|21=1|38=5000|40=2|44=27.1|54=1|55=CEA|60=20170609-02:33:51|10=102|8=FIX.4.2|9=123|35=D|34=35|49=KYZHOU|52=20170609-02:33:51.596|56=SEB91|1=123|11=33|21=1|38=499|40=2|44=27|54=2|55=CEA|60=20170609-02:33:51|10=233|8=FIX.4.2|9=126|35=D|34=36|49=KYZHOU|52=20170609-02:33:51.596|56=SEB91|1=123|11=34|21=1|38=2001|40=2|44=27.1|54=1|55=CEA|60=20170609-02:33:51|10=105|8=FIX.4.2|9=123|35=D|34=37|49=KYZHOU|52=20170609-02:33:51.596|56=SEB91|1=123|11=35|21=1|38=998|40=2|44=27|54=2|55=CEA|60=20170609-02:33:51|10=241|8=FIX.4.2|9=126|35=D|34=38|49=KYZHOU|52=20170609-02:33:51.597|56=SEB91|1=123|11=36|21=1|38=502|40=2|44=26.97|54=2|55=CEA|60=20170609-02:33:51|10=129|8=FIX.4.2|9=123|35=D|34=39|49=KYZHOU|52=20170609-02:33:51.597|56=SEB91|1=123|11=37|21=1|38=997|40=2|44=27|54=1|55=CEA|60=20170609-02:33:51|10=244|8=FIX.4.2|9=126|35=D|34=40|49=KYZHOU|52=20170609-02:33:51.597|56=SEB91|1=123|11=38|21=1|38=503|40=2|44=26.96|54=2|55=CEA|60=20170609-02:33:51|10=124|8=FIX.4.2|9=126|35=D|34=41|49=KYZHOU|52=20170609-02:33:53.179|56=SEB91|1=123|11=39|21=1|38=996|40=2|44=36.55|54=2|55=DAL|60=20170609-02:33:53|10=146|8=FIX.4.2|9=127|35=D|34=42|49=KYZHOU|52=20170609-02:33:53.180|56=SEB91|1=123|11=40|21=1|38=5000|40=2|44=36.56|54=1|55=DAL|60=20170609-02:33:53|10=161|8=FIX.4.2|9=127|35=D|34=43|49=KYZHOU|52=20170609-02:33:53.223|56=SEB91|1=123|11=41|21=1|38=4999|40=2|44=36.57|54=2|55=DAL|60=20170609-02:33:53|10=189|8=FIX.4.2|9=127|35=D|34=44|49=KYZHOU|52=20170609-02:33:53.224|56=SEB91|1=123|11=42|21=1|38=1998|40=2|44=36.56|54=2|55=DAL|60=20170609-02:33:53|10=187|8=FIX.4.2|9=127|35=D|34=45|49=KYZHOU|52=20170609-02:33:53.225|56=SEB91|1=123|11=43|21=1|38=5002|40=2|44=36.62|54=1|55=DAL|60=20170609-02:33:53|10=166|8=FIX.4.2|9=126|35=D|34=46|49=KYZHOU|52=20170609-02:33:53.225|56=SEB91|1=123|11=44|21=1|38=497|40=2|44=36.57|54=2|55=DAL|60=20170609-02:33:53|10=137|8=FIX.4.2|9=127|35=D|34=47|49=KYZHOU|52=20170609-02:33:53.226|56=SEB91|1=123|11=45|21=1|38=1003|40=2|44=36.63|54=1|55=DAL|60=20170609-02:33:53|10=169|8=FIX.4.2|9=126|35=D|34=48|49=KYZHOU|52=20170609-02:33:53.227|56=SEB91|1=123|11=46|21=1|38=504|40=2|44=36.54|54=2|55=DAL|60=20170609-02:33:53|10=129|8=FIX.4.2|9=120|35=D|34=49|49=KYZHOU|52=20170609-02:33:53.227|56=SEB91|1=123|11=47|21=1|38=0|40=2|44=0|54=2|55=DAL|60=20170609-02:33:53|10=068|8=FIX.4.2|9=127|35=D|34=50|49=KYZHOU|52=20170609-02:33:53.227|56=SEB91|1=123|11=48|21=1|38=1000|40=2|44=36.55|54=2|55=DAL|60=20170609-02:33:53|10=166|8=FIX.4.2|9=127|35=D|34=51|49=KYZHOU|52=20170609-02:33:53.229|56=SEB91|1=123|11=49|21=1|38=2997|40=2|44=36.57|54=1|55=DAL|60=20170609-02:33:53|10=197|8=FIX.4.2|9=124|35=D|34=52|49=KYZHOU|52=20170609-02:33:53.591|56=SEB91|1=123|11=50|21=1|38=4996|40=2|44=27|54=1|55=CEA|60=20170609-02:33:53|10=028|8=FIX.4.2|9=127|35=D|34=53|49=KYZHOU|52=20170609-02:33:53.611|56=SEB91|1=123|11=51|21=1|38=2004|40=2|44=33.65|54=2|55=AAL|60=20170609-02:33:53|10=160|8=FIX.4.2|9=127|35=D|34=54|49=KYZHOU|52=20170609-02:33:53.615|56=SEB91|1=123|11=52|21=1|38=3000|40=2|44=33.72|54=1|55=AAL|60=20170609-02:33:53|10=160|8=FIX.4.2|9=124|35=D|34=55|49=KYZHOU|52=20170609-02:33:53.616|56=SEB91|1=123|11=53|21=1|38=5000|40=2|44=27|54=1|55=CEA|60=20170609-02:33:53|10=009|8=FIX.4.2|9=120|35=D|34=56|49=KYZHOU|52=20170609-02:33:53.619|56=SEB91|1=123|11=54|21=1|38=0|40=2|44=0|54=2|55=AAL|60=20170609-02:33:53|10=066|8=FIX.4.2|9=127|35=D|34=57|49=KYZHOU|52=20170609-02:33:53.621|56=SEB91|1=123|11=55|21=1|38=1999|40=2|44=33.73|54=2|55=AAL|60=20170609-02:33:53|10=190|8=FIX.4.2|9=127|35=D|34=58|49=KYZHOU|52=20170609-02:33:53.627|56=SEB91|1=123|11=56|21=1|38=2001|40=2|44=33.74|54=1|55=AAL|60=20170609-02:33:53|10=173|8=FIX.4.2|9=126|35=D|34=59|49=KYZHOU|52=20170609-02:33:53.627|56=SEB91|1=123|11=57|21=1|38=998|40=2|44=33.71|54=2|55=AAL|60=20170609-02:33:53|10=147|8=FIX.4.2|9=127|35=D|34=60|49=KYZHOU|52=20170609-02:33:53.627|56=SEB91|1=123|11=58|21=1|38=5002|40=2|44=33.73|54=1|55=AAL|60=20170609-02:33:53|10=171|8=FIX.4.2|9=126|35=D|34=61|49=KYZHOU|52=20170609-02:33:53.628|56=SEB91|1=123|11=59|21=1|38=497|40=2|44=33.72|54=2|55=AAL|60=20170609-02:33:53|10=138|8=FIX.4.2|9=127|35=D|34=62|49=KYZHOU|52=20170609-02:33:53.629|56=SEB91|1=123|11=60|21=1|38=2003|40=2|44=33.75|54=1|55=AAL|60=20170609-02:33:53|10=168|8=FIX.4.2|9=126|35=D|34=63|49=KYZHOU|52=20170609-02:33:53.629|56=SEB91|1=123|11=61|21=1|38=996|40=2|44=33.72|54=2|55=AAL|60=20170609-02:33:53|10=138|8=FIX.4.2|9=120|35=D|34=64|49=KYZHOU|52=20170609-02:33:53.653|56=SEB91|1=123|11=62|21=1|38=0|40=2|44=0|54=2|55=AAL|60=20170609-02:33:53|10=062|8=FIX.4.2|9=124|35=D|34=65|49=KYZHOU|52=20170609-02:33:53.655|56=SEB91|1=123|11=63|21=1|38=4997|40=2|44=27|54=1|55=CEA|60=20170609-02:33:53|10=038|8=FIX.4.2|9=127|35=D|34=66|49=KYZHOU|52=20170609-02:33:53.655|56=SEB91|1=123|11=64|21=1|38=5003|40=2|44=27.04|54=1|55=CEA|60=20170609-02:33:53|10=168|8=FIX.4.2|9=126|35=D|34=67|49=KYZHOU|52=20170609-02:33:53.656|56=SEB91|1=123|11=65|21=1|38=996|40=2|44=27.01|54=2|55=CEA|60=20170609-02:33:53|10=136|8=FIX.4.2|9=127|35=D|34=68|49=KYZHOU|52=20170609-02:33:53.656|56=SEB91|1=123|11=66|21=1|38=3004|40=2|44=27.08|54=1|55=CEA|60=20170609-02:33:53|10=176|8=FIX.4.2|9=120|35=D|34=69|49=KYZHOU|52=20170609-02:33:53.657|56=SEB91|1=123|11=67|21=1|38=0|40=2|44=0|54=2|55=CEA|60=20170609-02:33:53|10=071|8=FIX.4.2|9=127|35=D|34=70|49=KYZHOU|52=20170609-02:33:53.657|56=SEB91|1=123|11=68|21=1|38=1000|40=2|44=27.01|54=2|55=CEA|60=20170609-02:33:53|10=160|8=FIX.4.2|9=123|35=D|34=71|49=KYZHOU|52=20170609-02:33:53.658|56=SEB91|1=123|11=69|21=1|38=999|40=2|44=27|54=2|55=CEA|60=20170609-02:33:53|10=250|8=FIX.4.2|9=126|35=D|34=72|49=KYZHOU|52=20170609-02:33:53.675|56=SEB91|1=123|11=70|21=1|38=497|40=2|44=26.99|54=2|55=CEA|60=20170609-02:33:53|10=141|8=FIX.4.2|9=124|35=D|34=73|49=KYZHOU|52=20170609-02:33:53.680|56=SEB91|1=123|11=71|21=1|38=1996|40=2|44=27|54=1|55=CEA|60=20170609-02:33:53|10=030|8=FIX.4.2|9=126|35=D|34=74|49=KYZHOU|52=20170609-02:33:53.689|56=SEB91|1=123|11=72|21=1|38=996|40=2|44=33.72|54=2|55=AAL|60=20170609-02:33:53|10=148|8=FIX.4.2|9=126|35=D|34=75|49=KYZHOU|52=20170609-02:33:53.690|56=SEB91|1=123|11=73|21=1|38=499|40=2|44=33.71|54=2|55=AAL|60=20170609-02:33:53|10=139|8=FIX.4.2|9=127|35=D|34=76|49=KYZHOU|52=20170609-02:33:55.196|56=SEB91|1=123|11=74|21=1|38=2997|40=2|44=36.57|54=1|55=DAL|60=20170609-02:33:55|10=209|8=FIX.4.2|9=126|35=D|34=77|49=KYZHOU|52=20170609-02:33:55.204|56=SEB91|1=123|11=75|21=1|38=500|40=2|44=36.56|54=2|55=DAL|60=20170609-02:33:55|10=130|8=FIX.4.2|9=127|35=D|34=78|49=KYZHOU|52=20170609-02:33:55.205|56=SEB91|1=123|11=76|21=1|38=4998|40=2|44=36.57|54=1|55=DAL|60=20170609-02:33:55|10=207|8=FIX.4.2|9=127|35=D|34=79|49=KYZHOU|52=20170609-02:33:55.206|56=SEB91|1=123|11=77|21=1|38=1997|40=2|44=36.56|54=2|55=DAL|60=20170609-02:33:55|10=206|8=FIX.4.2|9=127|35=D|34=80|49=KYZHOU|52=20170609-02:33:55.207|56=SEB91|1=123|11=78|21=1|38=2996|40=2|44=36.57|54=1|55=DAL|60=20170609-02:33:55|10=200|8=FIX.4.2|9=126|35=D|34=81|49=KYZHOU|52=20170609-02:33:55.660|56=SEB91|1=123|11=79|21=1|38=998|40=2|44=33.72|54=1|55=AAL|60=20170609-02:33:55|10=147|8=FIX.4.2|9=127|35=D|34=82|49=KYZHOU|52=20170609-02:33:55.663|56=SEB91|1=123|11=80|21=1|38=5000|40=2|44=33.73|54=1|55=AAL|60=20170609-02:33:55|10=172|8=FIX.4.2|9=127|35=D|34=83|49=KYZHOU|52=20170609-02:33:55.664|56=SEB91|1=123|11=81|21=1|38=4999|40=2|44=33.71|54=2|55=AAL|60=20170609-02:33:55|10=200|8=FIX.4.2|9=124|35=D|34=84|49=KYZHOU|52=20170609-02:33:55.689|56=SEB91|1=123|11=82|21=1|38=1997|40=2|44=27|54=1|55=CEA|60=20170609-02:33:55|10=048|8=FIX.4.2|9=127|35=D|34=85|49=KYZHOU|52=20170609-02:33:55.731|56=SEB91|1=123|11=83|21=1|38=2996|40=2|44=27.01|54=1|55=CEA|60=20170609-02:33:55|10=184|8=FIX.4.2|9=127|35=D|34=86|49=KYZHOU|52=20170609-02:33:57.203|56=SEB91|1=123|11=84|21=1|38=1000|40=2|44=36.56|54=2|55=DAL|60=20170609-02:33:57|10=178|8=FIX.4.2|9=127|35=D|34=87|49=KYZHOU|52=20170609-02:33:57.252|56=SEB91|1=123|11=85|21=1|38=5000|40=2|44=36.57|54=1|55=DAL|60=20170609-02:33:57|10=188|8=FIX.4.2|9=127|35=D|34=88|49=KYZHOU|52=20170609-02:33:57.253|56=SEB91|1=123|11=86|21=1|38=1999|40=2|44=36.55|54=2|55=DAL|60=20170609-02:33:57|10=213|8=FIX.4.2|9=189|35=V|34=89|49=KYZHOU|52=20170609-02:33:57.340|56=SEB91|146=12|55=AAL|55=CEA|55=DAL|55=ALK|55=AVH|55=ZNH|55=VLRS|55=CPA|55=GOL|55=LFL|55=LUV|55=UAL|262=1|263=1|264=5|265=1|267=2|269=0|269=1|10=223|8=FIX.4.2|9=127|35=D|34=90|49=KYZHOU|52=20170609-02:33:58.359|56=SEB91|1=123|11=87|21=1|38=3000|40=2|44=27.01|54=1|55=CEA|60=20170609-02:33:58|10=173|8=FIX.4.2|9=124|35=D|34=91|49=KYZHOU|52=20170609-02:33:58.436|56=SEB91|1=123|11=88|21=1|38=2999|40=2|44=27|54=2|55=CEA|60=20170609-02:33:58|10=052|8=FIX.4.2|9=127|35=D|34=92|49=KYZHOU|52=20170609-02:33:58.545|56=SEB91|1=123|11=89|21=1|38=1996|40=2|44=26.99|54=2|55=CEA|60=20170609-02:33:58|10=213|8=FIX.4.2|9=127|35=D|34=93|49=KYZHOU|52=20170609-02:33:58.548|56=SEB91|1=123|11=90|21=1|38=4998|40=2|44=27.01|54=1|55=CEA|60=20170609-02:33:58|10=197|8=FIX.4.2|9=127|35=D|34=94|49=KYZHOU|52=20170609-02:33:58.552|56=SEB91|1=123|11=91|21=1|38=2998|40=2|44=33.73|54=1|55=AAL|60=20170609-02:33:58|10=203|8=FIX.4.2|9=126|35=D|34=95|49=KYZHOU|52=20170609-02:33:58.596|56=SEB91|1=123|11=92|21=1|38=500|40=2|44=33.73|54=1|55=AAL|60=20170609-02:33:58|10=141|8=FIX.4.2|9=127|35=D|34=96|49=KYZHOU|52=20170609-02:33:58.598|56=SEB91|1=123|11=93|21=1|38=1998|40=2|44=33.72|54=2|55=AAL|60=20170609-02:33:58|10=216|8=FIX.4.2|9=123|35=D|34=97|49=KYZHOU|52=20170609-02:33:58.669|56=SEB91|1=123|11=94|21=1|38=499|40=2|44=27|54=2|55=CEA|60=20170609-02:33:58|10=007|8=FIX.4.2|9=127|35=D|34=98|49=KYZHOU|52=20170609-02:33:59.213|56=SEB91|1=123|11=95|21=1|38=2996|40=2|44=36.56|54=2|55=DAL|60=20170609-02:33:59|10=213|8=FIX.4.2|9=127|35=D|34=99|49=KYZHOU|52=20170609-02:33:59.215|56=SEB91|1=123|11=96|21=1|38=1000|40=2|44=36.55|54=2|55=DAL|60=20170609-02:33:59|10=191|8=FIX.4.2|9=128|35=D|34=100|49=KYZHOU|52=20170609-02:33:59.216|56=SEB91|1=123|11=97|21=1|38=4999|40=2|44=36.56|54=1|55=DAL|60=20170609-02:33:59|10=255|8=FIX.4.2|9=128|35=D|34=101|49=KYZHOU|52=20170609-02:33:59.217|56=SEB91|1=123|11=98|21=1|38=4998|40=2|44=36.55|54=2|55=DAL|60=20170609-02:33:59|10=001|8=FIX.4.2|9=127|35=D|34=102|49=KYZHOU|52=20170609-02:33:59.264|56=SEB91|1=123|11=99|21=1|38=996|40=2|44=36.55|54=2|55=DAL|60=20170609-02:33:59|10=206|8=FIX.4.2|9=123|35=F|34=103|49=KYZHOU|52=20170609-02:33:59.676|56=SEB91|1=1|11=100|38=-1395864370|41=3|44=0.|54=€|55=|60=20170609-02:33:59|10=043|8=FIX.4.2|9=128|35=D|34=104|49=KYZHOU|52=20170609-02:34:00.557|56=SEB91|1=123|11=101|21=1|38=996|40=2|44=33.72|54=2|55=AAL|60=20170609-02:34:00|10=213|8=FIX.4.2|9=125|35=D|34=105|49=KYZHOU|52=20170609-02:34:00.885|56=SEB91|1=123|11=102|21=1|38=996|40=2|44=27|54=2|55=CEA|60=20170609-02:34:00|10=063|8=FIX.4.2|9=129|35=D|34=106|49=KYZHOU|52=20170609-02:34:01.237|56=SEB91|1=123|11=103|21=1|38=2997|40=2|44=36.57|54=1|55=DAL|60=20170609-02:34:01|10=018|8=FIX.4.2|9=128|35=D|34=107|49=KYZHOU|52=20170609-02:34:01.239|56=SEB91|1=123|11=104|21=1|38=496|40=2|44=36.55|54=2|55=DAL|60=20170609-02:34:01|10=220|8=FIX.4.2|9=128|35=D|34=108|49=KYZHOU|52=20170609-02:34:01.240|56=SEB91|1=123|11=105|21=1|38=500|40=2|44=36.56|54=1|55=DAL|60=20170609-02:34:01|10=200|8=FIX.4.2|9=129|35=D|34=109|49=KYZHOU|52=20170609-02:34:01.244|56=SEB91|1=123|11=106|21=1|38=4996|40=2|44=36.57|54=1|55=DAL|60=20170609-02:34:01|10=023|8=FIX.4.2|9=128|35=D|34=110|49=KYZHOU|52=20170609-02:34:01.245|56=SEB91|1=123|11=107|21=1|38=500|40=2|44=36.56|54=2|55=DAL|60=20170609-02:34:01|10=201|8=FIX.4.2|9=129|35=D|34=111|49=KYZHOU|52=20170609-02:34:01.246|56=SEB91|1=123|11=108|21=1|38=1999|40=2|44=36.57|54=1|55=DAL|60=20170609-02:34:01|10=020|